:100000000C9458000C9480000C9480000C94800098
:100010000C9480000C9480000C9480000C94800060
:100020000C9480000C9480000C9480000C943E068C
:100030000C9480000C9480000C9480000C94800040
:100040000C94D5040C9480000C94A3040C947D04AF
:100050000C9480000C9480000C9480000C94800020
:100060000C941F050C94800000000000250028005F
:100070002B00040404040404040402020202020229
:10008000030303030303010204081020408001025C
:1000900004081020010204081020000000080002DB
:1000A0000100000304070000000000000000A20699
:1000B00011241FBECFEFD8E0DEBFCDBF11E0A0E01E
:1000C000B1E0EEE3F4E102C005900D92AE37B10766
:1000D000D9F722E0AEE7B1E001C01D92A53EB2071C
:1000E000E1F710E0C8E5D0E004C02197FE010E94CE
:1000F000170AC735D107C9F70E94DE060C941D0AFE
:100100000C94000090E0FC01E656FF4F2491FC01A6
:10011000EA57FF4F3491FC01EE58FF4FE491EE2374
:10012000B1F0222339F02330E9F090F4213001F1CD
:10013000223011F1F0E0EE0FFF1FE859FF4FA591BB
:10014000B4918FB7F894EC913E2B3C938FBF0895F8
:100150002730A9F02830C9F0243061F78091800061
:100160008F7D03C0809180008F7780938000E2CFE5
:1001700084B58F7784BDDECF84B58F7DFBCF809132
:10018000B0008F778093B000D5CF8091B0008F7D85
:10019000F9CF08950895AF92BF92CF92DF92EF9278
:1001A000FF920F931F93CF93DF936C017B018B0121
:1001B000040F151FEB015E01AE18BF08C017D10771
:1001C00059F06991D601ED91FC910190F081E02DFB
:1001D000C6010995892B79F7C501DF91CF911F9150
:1001E0000F91FF90EF90DF90CF90BF90AF90089568
:1001F000FC01538D448D252F30E0842F90E0821B2D
:10020000930B541710F0CF96089501970895FC01B1
:10021000918D828D981761F0A28DAE0FBF2FB11D09
:100220005D968C91928D9F5F9F73928F90E0089561
:100230008FEF9FEF0895FC01918D828D981731F01B
:10024000828DE80FF11D858D90E008958FEF9FEF6F
:100250000895FC01918D228D892F90E0805C9F4F45
:10026000821B91098F73992708958BE392E00E9476
:10027000290121E0892B09F420E0822F089580E0F4
:1002800090E0892B29F00E94350181110C94000027
:100290000895FC01A48DA80FB92FB11DA35ABF4F1B
:1002A0002C91848D90E001968F739927848FA68975
:1002B000B7892C93A089B1898C91837080648C93C9
:1002C000938D848D981306C00288F389E02D808178
:1002D0008F7D80830895EF92FF920F931F93CF93AA
:1002E000DF93EC0181E0888F9B8D8C8D98131AC071
:1002F000E889F989808185FF15C09FB7F894EE8958
:10030000FF896083E889F9898081837080648083B4
:100310009FBF81E090E0DF91CF911F910F91FF90FF
:10032000EF900895F62E0B8D10E00F5F1F4F0F73A7
:100330001127E02E8C8D8E110CC00FB607FCFACF62
:10034000E889F989808185FFF5CFCE010E944901B6
:10035000F1CFEB8DEC0FFD2FF11DE35AFF4FF08233
:100360009FB7F8940B8FEA89FB8980818062CFCF99
:10037000CF93DF93EC01888D8823B9F0AA89BB89DC
:10038000E889F9898C9185FD03C0808186FD0DC0C7
:100390000FB607FCF7CF8C9185FFF2CF808185FFE8
:1003A000EDCFCE010E944901E9CFDF91CF910895B1
:1003B00085ED8093BC008091BC0084FDFCCF109241
:1003C0001602089520919E01260F3327331F2132F4
:1003D0003105ECF420911602FC0190E080E024301D
:1003E00069F082E00895A0919E012191AC014258EC
:1003F0005E4FA40FB52FB11D2C930196861798F36D
:1004000080919E01680F60939E0180E0089581E0D5
:1004100008950895E091CF018091CE01E81730F45E
:10042000F0E0E053FE4F808190E008958FEF9FEF62
:1004300008959091CF018091CE012FEF3FEF981753
:1004400048F4E92FF0E0E053FE4F208130E09F5F59
:100450009093CF01C90108958091CE019091CF0171
:10046000891B990B0895CF92DF92EF92FF920F9321
:100470001F93CF93DF937C01CB018A0120913A0235
:10048000222389F0EB016B01C40ED51ECC15DD05CE
:1004900069F06991D701ED91FC910190F081E02D17
:1004A000C7010995F3CF642F0E94E201C801DF91D3
:1004B000CF911F910F91FF90EF90DF90CF90089513
:1004C000CF93DF931F92CDB7DEB7698320913A02B5
:1004D0002223F9F020913702203258F021E030E059
:1004E000FC013383228390E080E00F90DF91CF9175
:1004F000089580913802E82FF0E0E95EFD4F998180
:1005000090838F5F809338028093370281E090E080
:10051000ECCF61E0CE0101960E94E201F7CF90E0BE
:1005200080E00895FC0101900020E9F73197AF01C8
:10053000481B590BBC018BE392E00C94CB008F92CB
:100540009F92AF92BF920F931F93CF93DF93CDB73C
:10055000DEB7A1970FB6F894DEBF0FBECDBF19A2CC
:10056000423008F44AE08E010F5D1F4F842E912C1B
:10057000B12CA12CA50194010E94F509E62FB90127
:10058000CA01EA30F4F4E05DD801EE938D01232B2B
:10059000242B252B79F790E080E0109719F0CD01FE
:1005A0000E949202A1960FB6F894DEBF0FBECDBF97
:1005B000DF91CF911F910F91BF90AF909F908F903F
:1005C0000895E95CE1CF4F925F926F927F928F9294
:1005D0009F92AF92BF92CF92DF92EF92FF920F93D2
:1005E0001F93CF936B017C01742EAC019B010E9481
:1005F000F009882399F084E291E0CF911F910F9147
:10060000FF90EF90DF90CF90BF90AF909F908F9032
:100610007F906F905F904F900C949202460157012B
:10062000E894B7F82FEF3FEF4FE75FE7C501B4015C
:100630000E94F00981110DC02FEF3FEF4FE75FE7F8
:10064000C501B4010E94260818161CF488E291E046
:10065000D4CF2FEF3FEF4FE75FE4C701B6010E9411
:100660007E0918161CF48CE291E0C7CF2FEF3FEF04
:100670004FE75FECC701B6010E94260887FDF3CF64
:1006800020E030E0A901C701B6010E94260810E071
:1006900000E087FF0AC06DE28BE392E00E946B01ED
:1006A0008C01F7FAF094F7F8F094C0E060E070E0A5
:1006B00080E09FE37C1641F020E030E040E251E42E
:1006C0000E942B08CF5FF6CFA70196010E94BA07C0
:1006D0002B013C010E949D084B015C014AE00E94F5
:1006E0009F027C01E00EF11ECC23C1F1C501B401D3
:1006F0000E94CC089B01AC01C301B2010E94B90762
:100700004B015C016EE28BE392E00E946B01E80E0C
:10071000F91EC15018F120E030E040E251E4C5017B
:10072000B4010E9483092B013C010E949D084B01EA
:10073000B12CA12C4AE0C501B4010E949F02E80E31
:10074000F91EC501B4010E94CC089B01AC01C30194
:10075000B2010E94B9074B015C01DBCFC701CF9109
:100760001F910F91FF90EF90DF90CF90BF90AF90CF
:100770009F908F907F906F905F904F900895CF9350
:10078000DF93C091E40291E090933A02C093390262
:100790001092380210923702682F88ED92E00E9482
:1007A000600290913702913208F03FC080911602AA
:1007B0008111FCCF82E080931602109215028FEF18
:1007C000809314021092130290931202A7E1B2E0F8
:1007D000E2EFF1E080E0981384C01092F101809183
:1007E000F101CC0FC82BC093F1018091F001813051
:1007F00009F07BC01092F0018091F1018093BB0061
:100800008091BC0083FDF8CF85EC8093BC00809183
:1008100016028230E1F3809114028F3F31F0809113
:100820001402803211F0809114021092380210925A
:10083000370210923A028091E402909116029111CF
:10084000FCCF91E090931602909315022FEF209326
:1008500014021092130222E0209312029093F101ED
:100860009091F101880F892B8093F1018091F00123
:100870008130E9F51092F0018091F1018093BB0085
:100880008091BC0083FDF8CF85EC8093BC00809103
:1008900016028130E1F38091130293E0833010F46B
:1008A00090911302A2EFB1E0E0EDF1E080E0891356
:1008B00020C01092CF018093CE0188ED92E00E947B
:1008C0001902EC0188ED92E00E94190220E0C22B8F
:1008D000D82B88ED92E00E941902CE01DF91CF91D2
:1008E00008952D9121938F5F76CF85EE8ECF85EE83
:1008F000CCCF2D9121938F5FDACF1F920F920FB63D
:100900000F9211242F933F934F935F936F937F9395
:100910008F939F93AF93BF93EF93FF938BE392E0FB
:100920000E944901FF91EF91BF91AF919F918F91EB
:100930007F916F915F914F913F912F910F900FBEDB
:100940000F901F9018951F920F920FB60F921124BF
:100950002F938F939F93EF93FF93E0914B02F0912E
:100960004C028081E0915102F091520282FD1BC045
:100970009081809154028F5F8F732091550282176E
:1009800041F0E0915402F0E0E55CFD4F958F8093DB
:100990005402FF91EF919F918F912F910F900FBE75
:1009A0000F901F9018958081F4CF1F920F920FB671
:1009B0000F9211242F933F938F939F93AF93BF93E5
:1009C0008091C6019091C701A091C801B091C90161
:1009D0003091C50123E0230F2D3758F50196A11D55
:1009E000B11D2093C5018093C6019093C701A093C8
:1009F000C801B093C9018091C1019091C201A09139
:100A0000C301B091C4010196A11DB11D8093C10124
:100A10009093C201A093C301B093C401BF91AF9161
:100A20009F918F913F912F910F900FBE0F901F902C
:100A3000189526E8230F0296A11DB11DD2CF1F9253
:100A40000F920FB60F9211242F933F934F935F9302
:100A50006F937F938F939F93AF93BF93EF93FF9386
:100A60008091B900887F803609F44AC0F0F5883259
:100A700009F4A7C018F5803109F49BC0B8F48823A5
:100A800009F4F9C0883009F494C0FF91EF91BF9147
:100A9000AF919F918F917F916F915F914F913F9116
:100AA0002F910F900FBE0F901F901895883109F469
:100AB00088C0803251F78093140214C0803409F446
:100AC0009DC040F48033B9F38833F9F68093140263
:100AD00085ECB0C0803509F485C0883509F496C02E
:100AE000883499F60E94D801D0CF883909F48CC097
:100AF00038F5883729F050F4883611F0803729F618
:100B000083E0809316021092C00157C0883809F420
:100B10007BC0803919F0803809F0B7CF8091C001CF
:100B2000803208F071C0E091C00181E08E0F8093A7
:100B3000C0018091BB00F0E0E056FE4F80833DC0D5
:100B4000803B39F0E0F4803A09F479C0883A09F042
:100B50009CCF84E08093160210929F0110929E0118
:100B6000E091CC01F091CD01099580919E01811118
:100B70000FC081E080939E0110927E0109C0803CED
:100B800009F4A6CF883C09F4A3CF883B09F07DCFB8
:100B9000E0919F0181E08E0F80939F01F0E0E25889
:100BA000FE4F80818093BB0090919F0180919E01B8
:100BB00029C08091F1018093BB0085EC8093BC003B
:100BC00064CF9091130280911202981758F5E0912A
:100BD000130281E08E0F80931302F0E0EE50FE4F7F
:100BE0008081E9CFE091130281E08E0F80931302A0
:100BF0008091BB00F0E0EE50FE4F80839091130295
:100C0000809112029817C8F285E8D8CFE0911302BC
:100C100081E08E0F809313028091BB00F0E0EE50D4
:100C2000FE4F80838091150281115CCF81E080931B
:100C3000F00184EA8093BC001092160226CF85EC66
:100C40008093BC00109216028091C001803230F473
:100C5000E091C001F0E0E056FE4F10826091C001CB
:100C600070E0E091CA01F091CB0180EA91E0099532
:100C70001092C0010ACF1092140234CF1F920F922B
:100C80000FB60F9211242F933F934F935F936F935F
:100C90007F938F939F93AF93BF93EF93FF938AE4D8
:100CA00091E00E94920286E00E94BF03BC0190E0A6
:100CB00080E00E94CC082AE037ED43EA5CE30E9422
:100CC000830923E333E948E853E40E94B90742E08B
:100CD0000E94E30282E691E00E94920287E00E9475
:100CE000BF03BC0190E080E00E94CC082AE037ED11
:100CF00043EA5CE30E94830923E333E948E853E4D1
:100D00000E94B90742E00E94E3028BE791E00E9453
:100D1000920287E491E00E94920287E491E00E94AF
:100D20009202FF91EF91BF91AF919F918F917F912F
:100D30006F915F914F913F912F910F900FBE0F9048
:100D40001F901895EBE3F2E01382128288EE93E095
:100D5000A0E0B0E084839583A683B78324E031E0EC
:100D60003183208325EC30E03587248724EC30E084
:100D70003787268720EC30E0318B208B21EC30E068
:100D8000338B228B22EC30E0358B248B26EC30E049
:100D9000378B268B118E128E138E148EE8EDF2E0B7
:100DA0001382128284839583A683B78386E191E0C0
:100DB000918380838AE58093E4020895789484B5D2
:100DC000826084BD84B5816084BD85B5826085BD47
:100DD00085B5816085BD80916E00816080936E00D5
:100DE00010928100809181008260809381008091C7
:100DF0008100816080938100809180008160809378
:100E000080008091B10084608093B1008091B00037
:100E100081608093B00080917A00846080937A0032
:100E200080917A00826080937A0080917A0081605C
:100E300080937A0080917A00806880937A00109283
:100E4000C100E0914B02F0914C0282E08083E0917E
:100E50004702F09148021082E0914902F0914A0263
:100E60008FEC808310925302E0914F02F091500278
:100E700086E08083E0914D02F0914E028081806196
:100E80008083E0914D02F0914E02808188608083E2
:100E9000E0914D02F0914E02808180688083E09164
:100EA0004D02F0914E0280818F7D8083F8941092E4
:100EB000800010928100109285001092840081E1E0
:100EC0009AE79093890080938800809181008860E0
:100ED0008093810080918100846080938100809163
:100EE0006F00826080936F00789480E391E00E94AD
:100EF000920287E491E00E9492021092CF01109238
:100F0000CE0110923802109237021092160281E040
:100F1000809315021092F00182E10E94820083E129
:100F20000E9482008091B9008E7F8093B9008091E9
:100F3000B9008D7F8093B90088E48093B80085E480
:100F40008093BC0089EC90E09093CD018093CC011C
:100F50008AEC90E09093CB018093CA01C0E0D0E08E
:100F60002097F1F30E9435018823D1F30E940000FD
:100F7000F7CF5058BB27AA270E94D1070C944409E9
:100F80000E94360938F00E943D0920F039F49F3F55
:100F900019F426F40C9433090EF4E095E7FB0C9455
:100FA0002D09E92F0E94550958F3BA1762077307F4
:100FB0008407950720F079F4A6F50C9477090EF4D0
:100FC000E0950B2EBA2FA02D0B01B90190010C0159
:100FD000CA01A0011124FF27591B99F0593F50F471
:100FE000503E68F11A16F040A22F232F342F4427C9
:100FF000585FF3CF469537952795A795F0405395C1
:10100000C9F77EF41F16BA0B620B730B840BBAF090
:101010009150A1F0FF0FBB1F661F771F881FC2F7FB
:101020000EC0BA0F621F731F841F48F4879577950F
:101030006795B795F7959E3F08F0B0CF9395880FC9
:1010400008F09927EE0F9795879508950E94090952
:1010500008F481E008950E943F080C9444090E941E
:101060003D0958F00E94360940F029F45F3F29F00D
:101070000C942D0951110C9478090C9433090E9499
:10108000550968F39923B1F3552391F3951B550B3B
:10109000BB27AA2762177307840738F09F5F5F4F4B
:1010A000220F331F441FAA1FA9F335D00E2E3AF08A
:1010B000E0E832D091505040E695001CCAF72BD0A2
:1010C000FE2F29D0660F771F881FBB1F26173707F3
:1010D0004807AB07B0E809F0BB0B802DBF01FF2725
:1010E00093585F4F3AF09E3F510578F00C942D09CC
:1010F0000C9478095F3FE4F3983ED4F38695779596
:101100006795B795F7959F5FC9F7880F911D9695DD
:10111000879597F90895E1E0660F771F881FBB1F39
:10112000621773078407BA0720F0621B730B840BE6
:10113000BA0BEE1F88F7E09508950E945D0988F0CC
:101140009F5798F0B92F9927B751B0F0E1F0660F8B
:10115000771F881F991F1AF0BA95C9F714C0B130CC
:1011600091F00E947709B1E008950C947709672FF8
:10117000782F8827B85F39F0B93FCCF386957795FB
:101180006795B395D9F73EF49095809570956195E4
:101190007F4F8F4F9F4F0895E89409C097FB3EF40F
:1011A00090958095709561957F4F8F4F9F4F9923B4
:1011B000A9F0F92F96E9BB279395F6958795779532
:1011C0006795B795F111F8CFFAF4BB0F11F460FFF2
:1011D0001BC06F5F7F4F8F4F9F4F16C0882311F04A
:1011E00096E911C0772321F09EE8872F762F05C05E
:1011F000662371F096E8862F70E060E02AF09A95F9
:10120000660F771F881FDAF7880F9695879597F9ED
:101210000895990F0008550FAA0BE0E8FEEF161687
:101220001706E807F907C0F012161306E407F507DA
:1012300098F0621B730B840B950B39F40A2661F04E
:10124000232B242B252B21F408950A2609F4A140F1
:10125000A6958FEF811D811D089597F99F6780E8FE
:1012600070E060E008959FEF80EC089500240A94F8
:101270001616170618060906089500240A94121671
:101280001306140605060895092E0394000C11F4A4
:10129000882352F0BB0F40F4BF2B11F460FF04C051
:1012A0006F5F7F4F8F4F9F4F089557FD9058440FAA
:1012B000551F59F05F3F71F04795880F97FB991FB5
:1012C00061F09F3F79F08795089512161306140672
:1012D000551FF2CF4695F1DF08C0161617061806FF
:1012E000991FF1CF86957105610508940895E894DA
:1012F000BB2766277727CB0197F908950E94090934
:1013000008F48FEF08950E9496090C9444090E94F6
:10131000360938F00E943D0920F0952311F00C9415
:101320002D090C94330911240C9478090E94550955
:1013300070F3959FC1F3950F50E0551F629FF00128
:10134000729FBB27F00DB11D639FAA27F00DB11D41
:10135000AA1F649F6627B00DA11D661F829F2227CA
:10136000B00DA11D621F739FB00DA11D621F839F51
:10137000A00D611D221F749F3327A00D611D231F27
:10138000849F600D211D822F762F6A2F11249F5775
:1013900050409AF0F1F088234AF0EE0FFF1FBB1F78
:1013A000661F771F881F91505040A9F79E3F510537
:1013B00080F00C942D090C9478095F3FE4F3983E7B
:1013C000D4F3869577956795B795F795E7959F5FE1
:1013D000C1F7FE2B880F911D9695879597F9089573
:1013E0000E940909880B990B0895A1E21A2EAA1BE5
:1013F000BB1BFD010DC0AA1FBB1FEE1FFF1FA217C5
:10140000B307E407F50720F0A21BB30BE40BF50BC1
:10141000661F771F881F991F1A9469F7609570954A
:10142000809590959B01AC01BD01CF010895EE0F11
:0E143000FF1F0590F491E02D0994F894FFCF72
:10143E00000000006B01CB00F800B8012901070184
:10144E001B0100000000600233028F0209022C0211
:10145E0019020A026E616E00696E66006F76660092
:10146E004164616672756974204D4C58393036315D
:10147E00342074657374000D0A0074656D706572A6
:10148E00617475726120637A756A6E696B61203D55
:10149E0020002A43094F64637A79742074656D7055
:0E14AE0065726174757279203D20002A43003A
:00000001FF
